:020000040800F2
:100000000050002001010008D1060008D1060008B8
:10001000D1060008D1060008D10600080000000043
:10002000000000000000000000000000D1060008F1
:10003000D106000800000000D106000819010008E0
:100040001B0100081B0100081B0100081B01000820
:100050001B0100081B0100081B0100081B01000810
:100060001B0100081B0100081B0100081B01000800
:100070001B0100081B0100081B0100081B010008F0
:100080001B0100081B0100081B0100081B010008E0
:10009000152800081B0100081B0100081B010008AF
:1000A0001B0100081B0100081B0100081B010008C0
:1000B0001B0100081B0100081B0100081B010008B0
:1000C0001B0100081B0100081B0100081B010008A0
:1000D0001B0100081B010008C10D00081B010008DE
:1000E0001B0100081B0100081B010008DFF80CD0F1
:1000F00000F02AF800480047992900080050002025
:100100000648804706480047FEE7FEE7FEE7FEE7B1
:10011000FEE7FEE7FEE7FEE7FEE7FEE7C50B0008A9
:10012000ED00000840EA01039B0703D009E008C97D
:10013000121F08C0042AFAD203E011F8013B00F8AC
:10014000013B521EF9D27047064C074D06E0E068AD
:1001500040F0010394E8070098471034AC42F6D30E
:10016000FFF7C8FF7C300008BC30000810B50C4811
:10017000806940F01D000A4988610121094800F0AA
:1001800093F90949094800F004F90949094800F0C0
:1001900000F90949094800F0FCF800F0CFFA10BD59
:1001A0000010024000023000882E000800080140C4
:1001B0008C2E0008000C0140902E00080010014019
:1001C00008B50B4909684FF47A72B1FBF2F1891C4A
:1001D0000622B1FBF2F148430146009100BF00BF87
:1001E000009A521E0092002AFAD100BF08BD0000FA
:1001F0000000002030B500F00F010D4C04EB81032E
:10020000D3F8002C00F0800343B148F6CF731340BD
:10021000254605EB8104C4F8003C07E04CF68F73DB
:100220001340034D05EB8104C4F8003C30BD0000D1
:100230000050004070B500F00F02104D05EB820435
:10024000D4F8003C00F080045CB101F030045C4064
:1002500048F6BF752C40094E06EB8205C5F8004CE8
:100260000AE001F440545C404BF68F752C40034E7D
:1002700006EB8205C5F8004C70BD00000050004040
:1002800030B5044604254FF4302000F06FF80546E1
:10029000042D17D10C48006940F002000A4908619A
:1002A00008464461006940F0400008614FF4302086
:1002B00000F05CF805460448006941F6FD7108400D
:1002C00001490861284630BD0020024004200B4946
:1002D000C96801F0010109B101200EE00749C968B0
:1002E00001F0040109B1022007E00449C96801F0E6
:1002F000100109B1032000E00420704700200240F3
:100300000348006940F0800001490861704700001F
:100310000020024070B504460D460426F00200F0AD
:1003200025F80646042E11D10948006940F0010065
:10033000074908612580F00200F018F806460448D5
:10034000006941F6FE71084001490861304670BD00
:100350000020024002480349486003484860704753
:100360002301674500200240AB89EFCD00B502466E
:100370000423FFF7ABFF034603E0FFF7A7FF0346A5
:10038000521E012B01D1002AF7D102B905231846CC
:1003900000BD2DE9F0410246002500260020002383
:1003A0000024002791F803C00CF00F0591F803C05A
:1003B0000CF0100CBCF1000F03D091F802C04CEA15
:1003C000050591F800C0BCF1000F31D01468002081
:1003D0002BE04FF0010C0CFA00F3B1F800C00CEA6E
:1003E00003069E4220D183004FF00F0C0CFA03F756
:1003F000BC4305FA03FC4CEA040491F803C0BCF1C9
:10040000280F06D14FF0010C0CFA00FCC2F814C002
:100410000AE091F803C0BCF1480F05D14FF0010C80
:100420000CFA00FCC2F810C0401C0828D1D314609C
:10043000B1F800C0BCF1FF0F34DD546800202EE09D
:1004400000F1080C4FF0010808FA0CF3B1F800C0F5
:100450000CEA03069E4221D183004FF00F0C0CFAE8
:1004600003F7BC4305FA03FC4CEA040491F803C00B
:10047000BCF1280F05D100F1080C08FA0CF8C2F8FD
:10048000148091F803C0BCF1480F07D100F1080CAB
:100490004FF0010808FA0CF8C2F81080401C082838
:1004A000CED35460BDE8F081F0B50A4600230024A5
:1004B0000021002500F00046B6F1004F02D11D4E8C
:1004C000F16901E01B4E7168C0F3034583B200F48B
:1004D0004016B6F5401F08D121F07061154E7668C0
:1004E00026F07066134F7E6012E000F48016B6F5B9
:1004F000801F06D1032606FA05F4A14341F070617E
:1005000006E0460D360103FA06F6B14341F070618C
:1005100022B1460D360103FA06F6314300F00046DB
:10052000B6F1004F02D1034EF16101E0014E71605E
:10053000F0BD0000000001402DE9F04704460D46E3
:100540004FF0FF0A2078D02872DB2078D7286FDCA4
:10055000207805F8010B14F8010BD038082868D270
:10056000DFE800F00412151821335672504807686E
:1005700005F8017B380A05F8010B380C05F8010B6A
:10058000380E05F8010B74E0FFF7E4FE71E0FFF7A9
:10059000B7FE6EE027683846FFF772FE042801D0E8
:1005A0004FF0FF0A65E0D4F80080A68806E018F84E
:1005B000011BFF2902D04FF0FF0A04E0301EA6F114
:1005C00001018EB2F3D100BF53E02768A688382E10
:1005D00002DD4FF0FF0A1AE0A41D12E014F8019B9F
:1005E0002EB114F8011B49EA0129701E86B2494652
:1005F0003846FFF78FFE042802D04FF0FF0A05E0CF
:10060000BF1C301EA6F101018EB2E7D100BF30E061
:10061000D4F80080A6883E2E02DD4FF0FF0A12E0DB
:10062000002005F8010B09E026B998F800A005E0C4
:1006300023E01AE018F8010B05F8010B301EA6F1B3
:1006400001018EB2F0D114E000BFBFF34F8F194803
:10065000006800F4E06018490843001D154908606F
:10066000BFF34F8F00BF00BFFEE76D1E4FF0FF0AC4
:1006700000BF00BF85F800A017E01048006890B1E7
:100680000F4BDFF840C0DCF800C003EB8C110E4BC1
:10069000DFF838C0DCF800C003EB8C10074B1B6898
:1006A0005A68904701E0FF202870BDE8F0870000FD
:1006B000002004E00CED00E00000FA05140000202A
:1006C0008414002064000020840400205C000020CA
:1006D00072B61749086880F3088800BF00F02EF84A
:1006E000002412E000F070F8FA20FFF769FD00F036
:1006F00063F800F043F8FA20FFF762FD00F036F8E7
:100700004FF47A70FFF75CFD641C052CEADB00BF38
:10071000BFF34F8F0748006800F4E06006490843C4
:10072000001D04490860BFF34F8F00BF00BFFEE704
:10073000000000080CED00E00000FA0510B50848C4
:10074000806940F00400064988614FF44070054913
:100750000860054903481438FFF71BFE10BD000070
:100760000010024014080140742E00084FF400707D
:100770000149086070470000140801404FF4007000
:1007800001490860704700001008014000B50246AA
:1007900002F0010010B1FFF7F1FF01E0FFF7E6FF03
:1007A00000BD00000348006880F400700149086043
:1007B000704700000C0801404FF480700149086048
:1007C00070470000140801404FF480700149086030
:1007D000704700001008014000B5024602F0010019
:1007E00010B1FFF7F1FF01E0FFF7E6FF00BD0000E9
:1007F00070B5002400F02AFA054605F0040008B19F
:1008000044F0400405F0020008B144F0400405F053
:10081000010008B144F0100400F036FA054605F076
:10082000080008B144F0080405F0040008B144F0E1
:10083000020405F0020008B144F0010400F0F2F9EE
:1008400008B144F0040405480068604028B1A0B233
:1008500000F060FD08B10148046070BD2800002070
:1008600000F0010141B100BF0849096821F00F0102
:10087000091D064A116008E000BF0449096821F01B
:100880000F01C91D014A116000BF7047000C0140F3
:1008900010B504490448FFF77CFD04490248FFF7FE
:1008A00078FD10BD802E0008000C0140842E000849
:1008B00010B530200A4908600120091D0860094967
:1008C00007481038FFF765FD00BF0548103800687D
:1008D00020F00F00001D02491039086000BF10BD54
:1008E000100C01407C2E000810B50848806940F0CB
:1008F0000400064988614FF4004005490860054935
:1009000003481438FFF745FD10BD000000100240F9
:1009100014080140782E000829B1064AD269024322
:10092000044BDA6104E0034AD2698243014BDA6185
:10093000704700000010024029B1064A9269024344
:10094000044B9A6104E0034A92698243014B9A6125
:10095000704700000010024030B500210022002442
:1009600000232D4D6D6805F00C0121B1042905D03F
:10097000082923D105E0294D056022E0274D0560B7
:100980001FE0254D6D6805F47012234D6D6805F468
:100990008034022505EB92421CB9214D5543056078
:1009A0000BE01D4D6D6805F400351DB11C4D554320
:1009B000056002E0194D5543056002E0174D0560E2
:1009C00000BF00BF144D6D6805F0F0010909154D19
:1009D0006B5C0568DD4045600F4D6D6805F4E061B6
:1009E000090A104D6B5C4568DD4085600A4D6D68F5
:1009F00005F46051C90A0B4D6B5C4568DD40C5606C
:100A0000054D6D6805F44041890B074D6B5CC56869
:100A1000B5FBF3F5056130BD0010024000127A000D
:100A200000093D006C0000207C00002010B500F0A3
:100A300001F810BD08B5002000903748006840F468
:100A400080303549086000BF3348006800F400304A
:100A500018B90098B0F5A06FF6D12F48006800F4DF
:100A6000003040B92C48006820F480302A490860E2
:100A70000120009001E0002000902848006840F02C
:100A80001000264908600846006820F0030008604E
:100A90000846006840F0020008601F4840681E4990
:100AA00048600846406848600846406840F48060F6
:100AB00048600846406820F47C104860009828B1DF
:100AC0000846406840F4D000486005E0124840689D
:100AD00040F4E810104948600F48006840F080700A
:100AE0000D49086000BF0C48006800F00070002845
:100AF000F9D00948406820F00300074948600846DB
:100B0000406840F00200486000BF0348406800F0C1
:100B10000C000828F9D108BD001002400020024056
:100B200010B5002100200022214B5B6803F00C016E
:100B300021B1042906D0082928D107E01D4B1E4CFD
:100B4000236027E01B4B1C4C236023E0184B5B68A1
:100B500003F47010164B5B6803F48032022303EB3E
:100B6000904022B9154B4343134C23600DE0104BCA
:100B70005B6803F4003323B1104B43430E4C2360F6
:100B800003E00C4B43430C4C236003E0094B0A4C3D
:100B9000236000BF00BF064B5B68C3F30313084C20
:100BA000E15C054B1B68CB40034C236010BD00008B
:100BB0000010024000127A000000002000093D00F1
:100BC0000400002010B51348006840F001001149EE
:100BD000086008464068104908400E4948600846C9
:100BE00000680E4908400B4908600846006820F478
:100BF000802008600846406820F4FE0048604FF4FA
:100C00001F008860FFF712FF4FF000600449086082
:100C100010BD0000001002400000FFF8FFFFF6FECC
:100C200008ED00E00148006870470000480000201F
:100C300008B50121684600F037F8012802D19DF877
:100C4000000008BD4FF0FF30FBE7000000200C491A
:100C5000097801F0010109B140F002000849097862
:100C600001F0040109B140F004000649096831B9F6
:100C70000349097801F0020109B140F00200704710
:100C800040000020480000200020704701B50121ED
:100C9000684600F063F8012802D19DF8000008BD05
:100CA0004FF0FF30FBE7000030B5024600201EE0A9
:100CB0004B1E99B20F4BB3F904300E4CB4F90640F9
:100CC000A34214D00B4C63885C1C0A4D6C8005F168
:100CD0000804E45C02F8014B2B465B88DBB22C462F
:100CE00063802346DB885B1C1BB2E380401C002929
:100CF000DED130BD6C03002010B5262000F01F02AD
:100D000001219140114A430942F8231000BF0020FD
:100D10000F4908600F4908600F4908710820887161
:100D2000002048714FF4E1300860084600F04EFBA7
:100D3000262000F01F02012191404209920002F199
:100D4000E022C2F8001100BF012010BD80E100E0E8
:100D500044000020480000204C0000202DE9F04114
:100D600004460D4600261BE0681E85B212488088A6
:100D70001149C988401A0FFA80F8B8F1FF0F0FDC4B
:100D80000D48078814F8011B0830C155781CC7B2FC
:100D9000094807808088401C00B207498880761C7B
:100DA000002DE1D12EB1012240F22771034800F05D
:100DB000C6F83046BDE8F0816402002000440040DF
:100DC00070B5374800883749086040F225513448EB
:100DD00000F08BF800282FD0334880883249C9882A
:100DE000401A05B2FF2D23DC2D4800F039F9C4B2BA
:100DF0002D490888411C2C4A118002F108010C542D
:100E000044B90221264800F063F818B101202749AF
:100E1000086002E000202549086023480088C0B22D
:100E20002149088008468088401C00B2888003E081
:100E300000201D498880C88040F22771184800F0C2
:100E400054F820B31A480068012803D1144800F070
:100E50000CF923E01748B0F904001649B1F906105F
:100E6000884215D013484688701C124A508002F1FF
:100E70000800815D0A4800F0FDF80E484088C0B2C5
:100E80000C4948800846C088401C00B2C88005E074
:100E9000002240F22771024800F051F870BD0000B6
:100EA00000440040400000206C0300204800002067
:100EB000440000206402002021B1828942F40052E3
:100EC000828104E082894DF6FF731A408281704767
:100ED00002460020B1F5007F00D100BF13880B400F
:100EE0000BB1012000E00020704770B502460024DD
:100EF00000230025002040F66A16B14200D100BF51
:100F0000C1F3421501F01F03012606FA03F3012D78
:100F100002D19689334006E0022D02D1168A334071
:100F200001E0968A33400C12012606FA04F4168872
:100F3000344013B10CB1012000E0002070BDF0B5C9
:100F40000346002400260025002040F66A17B94217
:100F500000D100BF1846C1F3421401F01F0601275B
:100F600007FA06F5012C01D10C3004E0022C01D166
:100F7000103000E014301AB107682F43076002E018
:100F80000768AF430760F0BD2DE9F04786B005461E
:100F90000E460024A24600BFA1460027B08900B13A
:100FA00000BF2F462C8A4CF6FF700440F0880443A3
:100FB0002C82AC894EF6F3100440B0883189084386
:100FC000718908430443AC81AC8A4FF6FF4004406A
:100FD000B0890443AC8201A8FFF7BEFC1F488742DA
:100FE00002D1DDF810A001E0DDF80CA0A88900F422
:100FF000004040B10AEBCA0000EB0A10316849001A
:10100000B0FBF1F807E00AEBCA0000EB0A10316808
:101010008900B0FBF1F86420B8FBF0F0040120096E
:10102000642101FB1089A88900F4004040B13220FE
:1010300000EBC900B0FBF1F000F00700044308E04A
:10104000322000EB09106421B0FBF1F000F00F003A
:1010500004432C8106B0BDE8F08700000038014051
:1010600001468888C0F308007047818941F001017A
:1010700081817047C1F30802828070470020704769
:1010800070B50B4D0C460346D5E90C0188420BD9CF
:10109000401A844200DD044622461846FFF742F813
:1010A000686B2044686300E00024204670BD0000A7
:1010B000A8000020002070472DE9F041194C0D4692
:1010C0000746D4E90401401A17490A88101A002873
:1010D00002DC0020BDE8F081854200DD0546D4E950
:1010E00006020026904210D3104A09884319114481
:1010F0008B420AD30E1A904632463946FFF712F851
:101100003744AD1B4046C4F8188035B12A463946ED
:10111000FFF708F8A0692844A0612169A8190144D3
:101120002161D7E7A8000020B42E0008DA010020D2
:1011300010B5054C6068002805D10120606000F002
:1011400005F80020606010BDA80000202DE9F047E0
:10115000224CA06800283BD0D4E90401421AE06880
:101160004FF00006104335D01D481E4FDFF8788041
:101170000088DFF878903D182046C1696AB1A069FF
:10118000814203D38818A84200D36A1A99F8003024
:1011900038F81300904200DA02461548E6600078FD
:1011A00040F0800001F0FCFAE1690144E16162690C
:1011B0008D420244626100D1E761216991420BD105
:1011C00099F8002038F81210814205D10120E06022
:1011D000BDE8F087A660FBE7E660F9E7A80000201D
:1011E000B42E0008DA010020BC2E00088300002085
:1011F000B12E000810B50B4C206A18B1A06A401C33
:10120000A06210BD01202062606200F00DF8002095
:1012100060622062D4E90C018842F2D0401AFFF7E4
:1012200049FF10BDA800002010B5134C144A134804
:10123000216B1288144B081A101A124A1B7832F8C4
:10124000132090420EDB1148007800F003FF216B61
:1012500008442063A06A00280CD0616A002909D1E3
:10126000401E06E00120E062606A002802D0A06A09
:10127000401CA06210BD0000A80000201A0200203F
:10128000B62E0008BC2E000883000020B22E0008F5
:1012900010B50446400702D52046FFF7ABFF2007F4
:1012A00004D52046BDE81040FFF742BF10BD70478F
:1012B00008B501216846FFF7E3FE012802D04FF090
:1012C000FF3008BD9DF8000008BD002070470020D9
:1012D0007047000010B50B4800F042F8002810D00D
:1012E000084A0948116801700B0A43700B0C83709F
:1012F000090EC17011790171517941719179817132
:10130000012010BDE00000201801002010B500F001
:1013100039F810BD0F4910B50978C1B10E49A122A5
:1013200002230A7020224A7000228A70CA700A7151
:101330004A718B71CA710872000A487207480A2202
:10134000007840F0800001F02BFA012010BD002051
:1013500010BD0000810000205A020020B02E0008BD
:10136000014607480079087105488079887104486A
:101370004079487102480068086001207047000009
:101380004C00002010B501210846FFF7D5FA0121D5
:101390004804FFF7C1FAFFF7AFFC05490548FEF71F
:1013A000F8FF05490348FEF7F4FF012010BD0000D7
:1013B0006C300008000801407030000810B5FFF7DD
:1013C0009BFC10BD014601207047000070B505462A
:1013D000284CA879082801D0002070BD0020A080EA
:1013E000687920B1012809D002280BD102E0002041
:1013F000208109E04FF48060208105E04FF4C06057
:10140000208101E00020E8E700BF287920B1012811
:1014100009D002280BD102E00020E08009E04FF45F
:101420000050E08005E04FF44050E08001E00020F3
:10143000D3E700BF287910490871A87988716879C5
:10144000487128680860286820600C2060810020AE
:10145000A08121460948FFF797FD012240F225515E
:101460000648FFF76CFD01210448FFF725FD012028
:10147000B3E70000740400204C000020004400404A
:1014800001B501216846FFF717FE012802D04FF091
:10149000FF3008BD9DF8000008BD000010B51048E1
:1014A0000024104944608460C4600461C0E90541BF
:1014B000C0E9071444620C498462C0E90B414163EE
:1014C0000480FFF77BFF06484FF416513830016067
:1014D0000471447108218171FFF778FF10BD00008D
:1014E000A8000020DA0100201A02002010B5FFF742
:1014F000D5FF10BD70B5174C00250126206A50B9E4
:10150000D4E90C10814206D11348814203D02063F4
:10151000E56225626063A06A70B1206A60B9E06A22
:1015200050B92662FFF780FE2562D4E90C0188429B
:1015300002D0401AFFF7BEFDD4E90101084308D1EB
:10154000D4E90401884204D06660A660FFF7FEFD7E
:10155000656070BDA80000201A02002000207047BE
:101560000020704700207047024910B50880FFF73F
:1015700029FF10BDA8000020084810B5C1780268F6
:1015800061F31F6206490A6002790A7142794A7161
:10159000807988710846FFF719FF10BD18010020F7
:1015A000E000002010B504462046FEF723FE43F27B
:1015B00030012046FEF73EFE10BD000010B5024689
:1015C000937803F00F019088937803F0800353B170
:1015D000294B1B88294C246804EB01142360431C0D
:1015E00023F0010020E0244B1B88244C246804EBEA
:1015F0000114A3603E280ED900F11F0323F01F0041
:101600000123C3EB401343F400431C4C246804EB58
:101610000114E36008E0431C23F001004302174C6F
:10162000246804EB0114E360134B1B880344124C41
:101630002380D37803F0030333B1012B07D0022BAF
:1016400008D0032B0FD10BE04FF400700BE04FF4E8
:10165000806008E0002000230BB140F4807002E0BD
:101660004FF4C06000BF00BF0843054C04EB81038A
:10167000C3F8000C10BD00003C0000203800002022
:101680000050004030B94021034A118011460988BA
:1016900080311180704700003C00002000F086BAC5
:1016A00070B101210A4A116000211160121D116000
:1016B0004FF4E051121F1160D113064A116006E089
:1016C0000321034A1160D113024A121D11607047B1
:1016D000405C00401008014010B50B4C0B48A2883C
:1016E00001788A4200D9CAB21AB9074900201839CC
:1016F00008718020216801F053F8216801442160BD
:10170000A188081AA08010BD98000020992E00081A
:1017100010B5064C0020216800F09CFC21680144B3
:101720002160A188081AA08010BD00009800002048
:10173000704710B5044600212046FEF77BFD10BD22
:1017400010B5044643F220012046FEF773FD10BD9C
:101750002DE9F047DFF844820646A8F10805800726
:101760004FF0000AA5F1180424D500F0EDFF98F819
:1017700000004746C009FFF7DBFFF888A8803978EA
:10178000C1F3411010B1012877D17DE098F8012014
:10179000834FDFF810920C2A6FD2DFE802F0060CBC
:1017A000951C952B3B953F45526100F05FFD33E062
:1017B000FFF792FF96E0002000F096FD00285CD035
:1017C00000F0C8FF386820B16169002921D00820E5
:1017D00050E0484653E0012000F086FD002873D019
:1017E00000F0B8FF38680028F3D06169002979D08B
:1017F00004203FE011F01F0F66D198F8020001218C
:1018000040F08000207000F07F0000F08BFF00F0BF
:10181000A1FF67E000F050FC78B3C9E711F01F0F9B
:1018200052D15E481F3819E000F0B4FD28B300F033
:1018300091FF386818B1616929B301201AE05A484C
:101840001DE001F01F0101293ED16178A9B198F88E
:101850000400A178884237D2544908442860A7E799
:1018600000F060FE48B100F075FF386830B1616982
:1018700049B1022001F0E6FA34E025E04C48016865
:1018800009B1084680472DE011F01F0004D001285F
:1018900005D0022818D111E000F02AF913E000F079
:1018A0002DF9F8B900F080F9E0B900F0CFF8C8B927
:1018B00000F0CEF8B0B900F01FF904E000F0C4F871
:1018C00080B900F017F968B998F80010090604D437
:1018D000B8F8060008B1002000E0802000F02CFFDE
:1018E000A5F804A0700735D598F800004746000613
:1018F0002ED4A88858B3FFF70BFFA88838BB3878D8
:10190000C0F34111F1B101291CD110F01F0004D026
:10191000012805D0022815D10EE000F077F810E07C
:1019200000F07AF898B900F047F880B900F046F86E
:1019300068B900F06FF804E000F03CF838B900F046
:1019400067F820B9802000F0F7FEA5F804A001E0B8
:1019500000F006FF300713D598F80000000606D502
:10196000A888217908430BD0FFF7B6FE08E020785D
:10197000010605D500F07F002070002100F0D2FEA6
:10198000700602D50020FFF70DFE300604D5BDE835
:10199000F0478020FFF706BEBDE8F087A0000020DA
:1019A000282F0008242F00081C2F00082C000020DE
:1019B000202F0008002070470020704710B5104805
:1019C000104A01791278914203D00F4A127891425D
:1019D00014D1417821B1022905D020290ED10AE085
:1019E000FFF7BEFD02E04088FFF7BCFD30B100F01C
:1019F000B1FE012010BDFFF7BFFDF7E7002010BDCD
:101A0000A0000020AE2E0008AF2E00080020704776
:101A1000002070470020704710B50948094A017935
:101A20001278914209D14078092806D100F0D8FAFD
:101A300018B100F08FFE012010BD002010BD000085
:101A4000A00000209A2E0008002070470020704758
:101A500070B52249224A08791278904203D0214A6F
:101A60001278904238D11D4849781F4C1F4D40884C
:101A700004291FD007DC79B101290FD002290BD02E
:101A8000032929D111E0202906D021291AD02229A1
:101A90001BD0232920D11BE02C6011E0FFF717FC9D
:101AA00005E02C60FFF718FE0AE0FFF70EFC0028A7
:101AB000F7D111E0FFF7E2FA0CE000BF00F04AFEB8
:101AC000012070BDFFF706FCF1E7FFF74DFD01E0D7
:101AD000FFF744FD0028F1D1002070BDA0000020D8
:101AE000AE2E0008AF2E000818010020980000203C
:101AF0000020704700207047002070472DE9F0411A
:101B0000224C23492079097888423DD16078214DC3
:101B1000214E224F0C2837D2DFE800F03606212D67
:101B2000363636363616243200F070F960B3E07877
:101B3000012802D0032803D003E01948286000E000
:101B40002E60FFF7C9FD13E0E078022802D00328D9
:101B500003D00DE0134828600AE02E6008E000F092
:101B60003DF90AE000F014FA0CE000BF00F0F2FDCD
:101B70000120BDE8F08100F03FF928B12F60E0E7D7
:101B800000F024FA0028F1D10020F2E7A0000020A4
:101B90009A2E00089800002036000020180100202E
:101BA000590100209A0100200020704708480021B8
:101BB0004170C160016141618161C1614180818089
:101BC000016241628162C180C1620181704700008F
:101BD000E80000202DE9F05FDFF84081DFF840A148
:101BE000DFF840B10127504C08F101090025A5613B
:101BF000606910B1A761BDE8F09F6761A088618846
:101C000088421AD3206AC0B9E561A580012398F8FB
:101C1000001008F10102184600F098FF0004000CC3
:101C200060800CD04149C4F81C800978012902D891
:101C3000C4F81C903BE0401C60806088B8BBE06842
:101C4000A8BB216999B339484246007801280FD8CA
:101C50001570A5800223521C0021012000F076FFA0
:101C60000004000C608001D0C4F81C9025611EE0C7
:101C70001678202E00D3002607FA06F0084240D03E
:101C8000701CC1B21170A580022308F1010201206D
:101C900000F05CFF0104090C618003D0491CC4F80A
:101CA0001C806180216907FA06F081432161608808
:101CB000216A01432AD0A188401A9BF8001086B2FD
:101CC0003AF81100B04200D2064667621848324620
:101CD000E169007840F0800000F062FDE06915499C
:101CE0003044E061A088304480B2A08009888842F6
:101CF0000AD29BF800103AF81100B04204D12762D2
:101D000005E0761CF6B2B4E7256200E06562656125
:101D1000A06900287FF46BAF6DE700005801002038
:101D2000A22E000883000020E8000020A62E000854
:101D30009B2E0008A82E0008F8B5194C194D002656
:101D4000E08800B9A5621848A16A007800F082F91D
:101D50000004A16A000C0144A162E18801448BB235
:101D6000E3800AD0114909888B4206D2114A1049F2
:101D7000127831F81210814210D90F4801780120F1
:101D80000129009003D80021064A022003E02978A7
:101D90006A1C02205B1E00F0F7FFE680F8BD000021
:101DA000E8000020990100209C2E0008AA2E0008BF
:101DB000A22E000883000020A72E000810B50446BC
:101DC000000702D52046FFF705FF600704D520462F
:101DD000BDE81040FFF7B0BF10BD00000348044944
:101DE0008078085C0349087001207047A00000203B
:101DF000340000201801002010B500F0A5FE0249B3
:101E00000870012010BD0000180100200B4910B51A
:101E1000C8780022012804D0022804D0032806D163
:101E200003E0074A02E0002010BD064A521C8978F0
:101E3000002300F08BFE012010BD0000A000002058
:101E400058010020350000202DE9F05F4648007859
:101E500000287DD0454800273D4601784A1C027085
:101E6000434A1478042204EB440A02FA0AF2521E8E
:101E7000914201DB057001273E4900230A88FF2AB1
:101E800001D2521C0A803C4A8E46098832F81490CE
:101E9000894500D101238346002100699BF8006039
:101EA00043E000BF4FF0000C6FB1344A545CFF2C8C
:101EB00001D2641C5454324C645C24B1525CA24282
:101EC00001D34FF0010C2E4A4FF0020808FA0AF82D
:101ED000525C02FA08F44C4502DA0AB1012400E02F
:101EE000002433B12CB14FF0010808FA01F848EA98
:101EF0000000DFF8908018F8018042450AD01F4AA0
:101F0000525C424503D301228A40104300261C4AFA
:101F100002F80180BCF1000F05D014B901228A40FB
:101F20001043164A5554491CC9B2174A12789142B7
:101F3000B8D3CBF8100059468BF800600BB1AEF85F
:101F4000005008B1CA6852B1104A1378012200E06B
:101F500003E09A409043CBF81000BDE8F09FBDE845
:101F6000F05F0020FFF736BE81000020E80000206F
:101F700083000020300000209E2E00083200002048
:101F80003300002034000020A62E00085801002055
:101F900010B50A4809498078C97810B1084A8154B7
:101FA00009E00020074B084A02E01954401CC0B267
:101FB0001478A042F9D3012010BD0000A000002039
:101FC0003300002034000020A62E0008034810B57E
:101FD000807800F0D7FE012010BD0000A000002096
:101FE0000C4908B5C8780022012804D0022804D082
:101FF000032806D103E0002008BD074A00E0074A95
:10200000521C00230093CB88897800F0BDFE01208C
:1020100008BD0000A000002099010020350000202C
:1020200010B50548C06940F400000349C86100F0DC
:1020300005F8FEF759FC10BD0010024014200121E4
:1020400081404209920002F1E022C2F8001100BF73
:10205000704770472DE9F04305460C4605F00F0622
:102060001248006800EB061080681149022202FB4A
:1020700000190E48006800EB06108089C0F30907BC
:102080004FF0000805E039F8041B2180A41C08F17A
:102090000108781CB8EB500FF5D34FF44051284697
:1020A000FEF7C8F83846BDE8F0830000380000208D
:1020B00000600040704700007CB54048A0F120055A
:1020C0000178A0F1080411F01F0102D0012973D199
:1020D0005CE0C378394839492038394AC078897872
:1020E000082B69D2DFE803F06804123F6868082C07
:1020F00034482060122047E0117800295CD018B1E4
:10210000314820600A203FE03048FAE712780AB9E7
:10211000012851D018B12E480090002008E02D4829
:10212000FAE7009A137813B153881A440092401CBE
:102130008142F6D100980178E9B32060408823E01D
:102140001278C2B318B124480090002008E0234858
:10215000FAE7009A137813B153881A440092401C8E
:102160008142F6D1E6E71E480090002005E0009B82
:102170001A780AB11A440092401C8142F7D10098A3
:102180000178C1B120600078019005E001A968469E
:1021900000F02AF800280DD0A1880198814208D9C2
:1021A000104980B2A0800978491E084201D101205F
:1021B000287101207CBDFFE70020FBE7A000002084
:1021C000952E0008522F0008652F0008642F000884
:1021D000D22F0008662F0008D42F0008D32F000844
:1021E000D62F0008992E000830B5164A164C174B0A
:1021F000D5781279212D02D0222D20D115E0247816
:10220000A2421CD1124A1478124A12780CB9012A3F
:1022100015D042B1104A02601046104A128810448C
:102220001860092008E00E4AF5E72078824206D1BE
:102230000C4818600C4800880860012030BD002060
:1022400030BD0000A00000209A2E00089800002059
:10225000952E000883000020D22F0008502F000880
:10226000662F00082C2F00084E2F000870B51C4860
:102270001B4D0078A5F1080510F01F040AD018487E
:10228000A5F11801174B4A780079012C06D0022CD1
:1022900024D109E012481A3828601DE0F2B189788B
:1022A00088421BD2002015E000F08F04200605D5DF
:1022B00004F00F064FF48030B04001E00120A04050
:1022C0000AB922070AD18A68024207D0C9680142C6
:1022D000E8D0012018802B60012070BD002070BD67
:1022E000A00000201801002070B5294A0146A2F183
:1022F0002004107810F01F031046408804D0012BF2
:1023000028D0022B26D110E0012823D129B100F0DA
:1023100045FAE08840F0020005E0002000F03EFAB7
:10232000E08820F00200E08030E0127902F08F06B1
:10233000320605D506F00F024FF48035954001E0D6
:102340000125B54062782AB1320703D0A2682A423B
:1023500000D008B1002070BD0D482038C06800EAE8
:10236000050031B190B9304600F0E6F9E068284345
:102370000BE058B12069284208D13046FFF712F926
:102380003046FFF797FEE068A843E060012070BD8B
:10239000A00000202DE9F84F5C4F00200090387815
:1023A00010F01F0F6FD1B8784FF000094FF0010BFC
:1023B0004FF4803AA7F1200600287AD054480178DB
:1023C0003046C07809B901285DD008B1514C6BE0A6
:1023D000514C69E06078022804D0042844D00528D4
:1023E00060D144E06179B87881423BD17070207946
:1023F000B0700020494A4A4903E000BF02F800904B
:10240000401C0B889842F9D30125B0460BFA05F021
:10241000D8F80810084202D02846FFF78AF9D8F801
:1024200008100AFA05F0084203D045F08000FFF7D3
:1024300080F96D1C102DE9D34FF00110C8E9020995
:102440000120C8F81090FFF71DF9E0794006B8F8B0
:10245000060002D540F0010001E020F00100A8F8DC
:1024600006001FE060881EE0E07800901AE0009807
:10247000C0B9A07800F08F05280605D505F00F013A
:102480000AFA01F002E03CE00BFA05F0B168014302
:102490002046B160FFF792F82846FFF751F9284629
:1024A00000F030F9207804442078002892D124E00C
:1024B000FFE7C84686F8019001245D464FEA0A0905
:1024C000B16805FA04F0084202D02046FFF731F95E
:1024D000B16809FA04F0084203D044F08000FFF725
:1024E00028F9641C102CEBD34FF00110C6E9020848
:1024F0000020C6F81080FFF7C5F8B87871788842D8
:1025000002D00020BDE8F88F0120FBE7A0000020EA
:10251000952E0008D22F0008662F00082C000020FE
:10252000962E00082DE9FC5F444E00273D4630788A
:10253000BB4600F01F00B84601287DD1A6F120015E
:102540004878002875D03E48BA4602780846C078D8
:102550000AB9012870D0894608B13A4C65E03A4C76
:1025600063E06078022804D0042809D005285AD1F5
:1025700017E0617999F80100814254D0608853E0F6
:10258000A7783079E5784FF00008B8424BD1B078A1
:10259000A84248D12D484FF0010A10F807B0C555A0
:1025A00041E03079B8423ED1A07800F08F00019030
:1025B000000605D5019800F00F014FF4803001E0CE
:1025C0000199012088400090B078A84217D1D9F82D
:1025D0000810009A20461143C9F80810D9F80C10C9
:1025E0009143C9F80C10FEF7E9FF0198FFF7A8F82E
:1025F000019800F087F8009948EA010813E05D456A
:1026000011D1009918EA010F0DD1D9F80810009ADC
:102610009143C9F80810D9F80C109143C9F80C106F
:102620000198FFF786F8207804442078002898D194
:102630005046BDE8FC9FFFE70020FAE7A00000201D
:10264000952E0008D22F0008662F00082C000020CD
:102650000020274908602748006808B1481400E0B6
:10266000002040F41C402349096811B14FF4804117
:1026700000E0002108432049096811B14FF40071BE
:1026800000E0002108431C49096811B14FF4807132
:1026900000E0002108431649091F0860402017493F
:1026A0000880002012490C31086014480088144941
:1026B00009680860114800884030104908800846C1
:1026C00000880F49096888600C48008840300B4931
:1026D000088048F2FF700A490968C8604FF4485002
:1026E0000349443908608020014908310860704777
:1026F000445C0040D82E0008D42E00083C00002086
:102700003800002010B504462046FDF773FD10BDCB
:10271000FEF7ECBE10B5FFF797FBBDE81040FEF7E3
:10272000E9BE000001B1704740F08002014B1A6021
:1027300000BFF8E74C5C004010B5044641F21001C0
:102740002046FDF777FD10BD01490020FFF782BC50
:10275000A000002000221146802000F021B80000D7
:1027600001490020FFF776BC1801002005480068E9
:1027700040F00800034908600846006840F0040083
:1027800008607047405C00400348006820F0080083
:102790000149086070470000405C0040704700003D
:1027A0002DE9F04707460D46144607F00F06164878
:1027B000006800EB061000681449022202FB001AB0
:1027C0004FF0000805E028884AF8040BAD1C08F11A
:1027D0000108601CB8EB500FF5D30B48006800EB04
:1027E000061044600A4901EB8600D0F8000C1FFA7D
:1027F00080F909F03000102803D030213846FDF769
:1028000019FD2046BDE8F087380000200060004038
:102810000050004070B55048056805F4806068B10C
:10282000FFF716FF00F010FB4C48006810B14B4852
:10283000006880476FF480604749086005F40060D5
:1028400058B1FFF793FF4648006810B1444800684C
:1028500080476FF400604049086005F4805058B12B
:10286000FFF792FF3F48006810B13E48006880477C
:102870006FF480503849086005F4007048B13A4858
:10288000006810B13848006880476FF40070324922
:10289000086005F4804050B13448006818B1022047
:1028A0003249096888476FF480402B49086005F475
:1028B000005050B12D48006818B101202B4909681B
:1028C00088476FF40050244908603CE06FF40040F2
:1028D0002149086005F00F04254901EB8400D0F878
:1028E000006C06F40040C0B126F4004048F68F7139
:1028F00008401F4A02EB8401C1F8000C1D4850F843
:10290000240050B106F400620AB1022200E0042261
:102910001046184A52F82410884706F0800090B1FB
:1029200026F0800048F68F710840114A02EB8401BE
:10293000C1F8000C0F4850F8240020B10D4850F8A1
:1029400024100820884704480068054600F4004029
:102950000028BBD170BD0000445C0040C42E0008BC
:10296000C82E0008CC2E0008D42E0008D82E00084F
:1029700000500040DC2E000802E008C8121F08C109
:10298000002AFAD170477047002001E001C1121FF0
:10299000002AFBD170470000FDF7E8FBFEF7C0F806
:1029A000FDF7ECFE5648006838B1554855490860B7
:1029B00008460068016854488847FDF7D7FE0A209A
:1029C000FDF7FEFB00F030FA012000F0BBF800201C
:1029D0004E4908601AE04D4801680068401C4B4AA7
:1029E000106011B9FDF7CAFE0DE0484800680528DF
:1029F00002D1FDF7BBFE06E044480068322802D150
:102A00000020424908600A20FDF7DAFB00F092F846
:102A10000028E0D0FDF7AAFE6420FDF7D1FB0020DE
:102A20003A4908603A483B4908604FF0FF303A495C
:102A300008603A49086061E03248006880B933486C
:102A400001680068401C314A10603548814204D159
:102A5000002011460860FDF7A5FE00F035F91BE0E7
:102A600000F032F9A8B92B480068B0F57A7F02D19E
:102A7000FDF784FE07E02748006820B9FDF776FEE1
:102A800023482449086023480068401E2149086003
:102A900002E01F481F490860FDF7AAFE1E480068B3
:102AA000401C18B9FEF704FC1B4908601A4800686E
:102AB000401C58B118490878FEF7E8F8164909682B
:102AC000884203D14FF0FF30134908601348006873
:102AD000401C18B9FEF7ACF8104908600F480068B0
:102AE000401C58B10D490878FEF7CAFC0B4909682B
:102AF000884203D14FF0FF30084908609CE700008E
:102B000000400008140000206C2E00082000002067
:102B1000400D030024000020180000201C000020AD
:102B200040420F0010B500F0AFF8BDE81040FEF7CE
:102B3000EDBB000002484078002800D0012070471B
:102B400080000020FEF7ACBD002070472DE9F04169
:102B500004460F4615461E46012C02D0032C38D1E0
:102B600036E026B1012E04D0022E2FD100E000BFA6
:102B70002CE01948006819490968884202D11848B0
:102B80000078F8B11748144A126800EB821140220D
:102B90002846FDF7C7FA10480068401C0E49086037
:102BA00008460068402801D1002008600A480068F3
:102BB0000A490968884202D100200949087040206A
:102BC000BDE8F08101200849087000BF00BF00E0A7
:102BD00000BF00BF0020F3E7680000206400002071
:102BE0006100002084140020600000202DE9F041E5
:102BF00007461F4816460088824202DD0020BDE8D5
:102C0000F0811C4800780028F9D01B4C01224FF0BD
:102C10000008E26000E0B0B1626A12B1A269002A65
:102C2000F9D1164D3246681C2F70FDF77BFAE5612D
:102C30001349A4F80480B0B26080097801290BD848
:102C40006D1CE5610AE0C4F80C80C4F81C80A4F88F
:102C50000480A4F80280D1E7401C60800020FEF7C9
:102C6000B9FF084800F807800120C4F80C80C6E7C7
:102C7000A82E000881000020E80000205801002054
:102C8000A62E0008320000200020084908700849DC
:102C900008600849086001200749087000200749BA
:102CA0000870074908600749086070475400002011
:102CB000580000205C00002060000020610000201F
:102CC000640000206800002010B5254800682549F0
:102CD0000968884203D12448007800283DD0234A5F
:102CE000234B1B6802EB8311224A1D4B1B6802EB2E
:102CF0008310FDF721FC1A480068441C402C00D1C9
:102D0000002417480460006816490968884202D107
:102D10000020154908701848007860B10020164955
:102D200008701248124A126800EB821140220020FB
:102D3000FFF75CFF0FE00E480068441C402C00D1F8
:102D400000240B48046000680C490968884202D1DD
:102D500001200B490870012010BD0020FCE7000095
:102D60005C00002058000020540000208414002043
:102D7000640000208404002060000020680000201F
:102D800061000020704700002DE9F04106468846AA
:102D900014461D46069F022E02D0032E36D134E083
:102DA00005B933E02078072807D11A48006818B120
:102DB000184909688868804728E01748007830B1CA
:102DC0001648006816490968884200D11EE0154976
:102DD000124A126801EB82102A462146FDF7A2F939
:102DE0000E480068401C0D490860084600684028ED
:102DF00001D1002008600948006809490968884233
:102E000002D101200449087000E000BF00BFBDE806
:102E1000F081000014000020540000205800002021
:102E20005C00002084040020054910B50020C87013
:102E3000FFF778FEFFF70DF9BDE81040FFF7F0B897
:102E4000800000207047000006484FF00112017812
:102E50000548C180002101704170C0E90221016173
:102E600070470000942E0008800000208D070008A5
:102E7000D90700080003021000800214300003107C
:102E80003000004801000048FF870000FFFF0000FD
:102E900000E0000000000300034002030300010003
:102EA000400040000400010140004000010000011A
:102EB00001020200400040004000100040004000BD
:102EC00000000000112700080000000000000000C2
:102ED000000000001527000800000000511700083E
:102EE000AF12000891120008BD1D0008000000008C
:102EF00000000000000000000000000000000000D2
:102F000000000000000000000000000000000000C1
:102F10000000000000000000000000009D160008F6
:102F20000000000000000000000000000600FF0993
:102F300001A101150026FF007508954009018102D5
:102F400095400901910295010901B102C0002100DB
:102F5000540012010002EF02014051C201F00001D1
:102F600001020301000009026B0003010080320826
:102F70000B00020202010409040000010202000425
:102F80000524001001052401010104240202052486
:102F90000600010705810340000209040100020A3E
:102FA00000000507050202400000070582024000FC
:102FB00000090402000203000006092100010001CB
:102FC0002221000705830340000107050303400099
:102FD0000100000000000403090412035800380037
:102FE000390033002000410052004D00140343001B
:102FF0004D005300490053002D0044004100500093
:103000001A03300030003000310041003000300041
:10301000300030003000300030001C0343004D0011
:103020005300490053002D0044004100500020008F
:103030004300440043001C0343004D00530049007B
:1030400053002D0044004100500020004400430084
:1030500049001A03590045002D0043004D0053005C
:10306000490053002D00440041005000080003486F
:10307000040003180800004804000048BC300008A1
:10308000000000201801000078290008D431000851
:10309000002800200C00000078290008D431000826
:1030A000180100206C23000088290008E031000886
:1030B0000C280020980000008829000800A24A047B
:1030C00000000000000000000102030406070809D8
:1030D00000000000000000000000000000000000F0
:1030E00000000000FFFFFFFF0000000000000000E4
:1030F0000000000000600040000000000000000030
:1031000000000000000000000000000000000000BF
:1031100000000000000000000000000000000000AF
:103120000000000000000000000000000102030495
:103130000102030406070809020406080000000053
:10314000000000000000000000000000000000007F
:10315000000000000000000000000000000000006F
:10316000000000000000000000000000000000005F
:10317000000000000000000000000000000000004F
:10318000000000000000000000000000000000003F
:10319000000000000000000000000000000000002F
:1031A000000000000000000000000000000000001F
:1031B000000000000000000000000000000000000F
:1031C00000000000000000000000000000000000FF
:1031D00000000000000000000000000000000000EF
:020000040800F2
:1040000011560008554100080556000870B50646CF
:104010000D46307808B9012400E03478012C05D130
:10402000012006490870FCF743FC03E000202870DB
:10403000012070BD00BF2C700120FAE78C28002001
:1040400018B502460B461078547840EA04210C4813
:1040500000680C4CB0FBF4F0801C0324B0FBF4F0BF
:1040600041430846009000BF00BF009C641E0094BE
:10407000002CFAD100BF00201870012018BD0000EC
:104080000000002040420F0010B504460020044903
:104090000870FCF7FDFB00202070012010BD00001F
:1040A0008C28002002460020052A1AD008DC012AAC
:1040B0000FD0022A0ED0032A0DD0042A21D10BE002
:1040C000062A0FD0F02A0ED0FE2A16D0FF2A18D1C9
:1040D0000DE016E015E014E00B4B1B680B600420AC
:1040E0000FE00EE00DE001230B70012009E04023FA
:1040F0000B7000234B70022003E040230B70012063
:1041000000BF00BF704700002456000870B5044689
:104110000D46207810B1012810D107E0627802F036
:1041200001000B4A1268116888470BE0627802F0C0
:104130000100074A12685168884703E0FF20287091
:10414000012070BD00BF002028700120F9E70000A9
:104150000028002070B506460D463078802807DB21
:1041600030789F2804DC2946304600F09DF870BD69
:10417000307805F8010B16F8010B172870D2DFE82C
:1041800000F00C141A204E54658878252B888888F6
:10419000888830363C4248494A003078691CFFF72D
:1041A00081FF04462C70A01CE1E729463046FFF74A
:1041B000ADFF044672E029463046FFF727FF04466C
:1041C0006CE02846FFF760FF044667E0294630466A
:1041D000FFF736FF044661E0284600F06AF804461F
:1041E0005CE02946304600F045FB044656E029468F
:1041F000304600F005FB044650E02946304600F00A
:1042000001FC04464AE02946304600F079F80446AD
:1042100044E000BF00BFFF2028700220A7E7294626
:10422000304600F019FC044638E01E4800780128AA
:1042300005D12946304600F075F8044604E0002018
:1042400028706870022400BF00BF27E0154800787E
:10425000012806D12946304600F016FA044606E049
:1042600017E0002028706870A870032400BF00BF0A
:1042700014E00C480078012805D12946304600F0AA
:104280001FF8044603E0FF20287002206FE700BFFC
:1042900004E0FF2005F8010C012068E700BF601C66
:1042A00065E700008C2800200246FF2008700120EE
:1042B0007047014600BF0020487008700220704718
:1042C00038B504460D460D480078012803D0FF207C
:1042D0002870012038BD6078A17840EA0120E1789B
:1042E00040EA0140217940EA0160009069460020DF
:1042F00000F048FC002028700120EBE78C2800200B
:1043000010B50246137803F00300401C044C2075DE
:10431000C3F380040248447500200870012010BDDA
:104320008C2800202DE9F04F85B006460C46002071
:1043300003900025A146A41CD14908708246029032
:10434000761C16F8010B049047E116F8018B08F073
:10435000020000287ED0BAF1000F3CD0C94847893E
:1043600008F01100012811D100BF6946404600F055
:1043700009FC0546022D1CD1381EA7F101018FB2A0
:1043800017D0BF4800780028EFD012E000BF694680
:104390000E2000F0F7FB0546022D08D1381EA7F1CC
:1043A00001018FB203D0B64800780028EFD04FF05B
:1043B000000A012D00D017E1009804F8010B0098C5
:1043C000000A04F8010B0098000C04F8010B009897
:1043D000000E04F8010B08F0100000285AD03078C5
:1043E000717840EA0120B17840EA0140F17840EA72
:1043F000016B361DA3488089019008F00100A8B127
:10440000A048478900BF0021404600F0BBFB05469D
:10441000022D08D1381EA7F101018FB203D09848B0
:1044200000780028EFD0012D00D0DDE000BF9548D6
:10443000478900BF6946404600F0A4FB0546022DAF
:104440000AD1381EA7F101018FB205D08C4800783F
:10445000002800E063E0EDD0012D00D00EE0894897
:10446000006900990840584508D00198411E89B25A
:10447000019118B1824800780028D8D000BF814847
:10448000006900990840584501D045F01005012DFC
:1044900042D0A9E07B48478908F00100C8B1BAF1D1
:1044A000000F39D100BF0021404600F06BFB0546EC
:1044B000022D08D1381EA7F101018FB203D0704838
:1044C00000780028EFD0012D00D08DE04FF0010AD8
:1044D00022E000BF6946404600F054FB0546022D2D
:1044E00008D1381EA7F101018FB203D064480078CB
:1044F0000028EFD0012D00D076E0009804F8010BE1
:104500000098000A04F8010B0098000C04F8010B55
:104510000098000E04F8010B0020029055E0BAF15B
:10452000000F26D05748478900BF69460E2000F08B
:1045300029FB0546022D08D1381EA7F101018FB2D3
:1045400003D04F4800780028EFD0012D00D04BE079
:10455000009804F8010B0098000A04F8010B009879
:10456000000C04F8010B0098000E04F8010B4FF04A
:10457000000A3078717840EA0120B17840EA0140C1
:10458000F17840EA01600090361D08F0200020B16B
:104590003C4800990161012517E03A48478900BF6E
:1045A0006946404600F0EEFA0546022D08D1381E55
:1045B000A7F101018FB203D0314800780028EFD075
:1045C000012D00D010E0012002900398401CC0B2E1
:1045D00003902B48007800B106E00498411EC9B250
:1045E000049100287FF4B1AE00BF012D3DD1BAF196
:1045F000000F25D02348478900BF69460E2000F0F0
:10460000C1FA0546022D08D1381EA7F101018FB26B
:1046100003D01B4800780028EFD0012D00D025E002
:10462000009804F8010B0098000A04F8010B0098A8
:10463000000C04F8010B0098000E04F8010B14E0C4
:10464000029890B10F48478900BF00210E2000F06A
:1046500099FA0546022D08D1381EA7F101018FB243
:1046600003D0074800780028EFD000BF039889F8EE
:10467000000089F80150A4EB090005B0BDE8F08FF7
:10468000082800208C2800202DE9F84F04460D460C
:104690004FF0000B0026A846ED1C0020564908707C
:1046A000641C2078617840EA012AA41CBAF1000F4A
:1046B00000D195E014F8017B07F0020000284FD0EC
:1046C00007F00100B0B14D48B0F80A9000BFF8B251
:1046D000002100F057FA0646022E08D1B9F1000079
:1046E000A9F1010903D0444800780028EFD0012E39
:1046F00000D075E02EE0BAF1000F03D107F0010001
:1047000000B10E273D48B0F80A9000BFF8B26946E4
:1047100000F038FA0646022E08D1B9F10000A9F1DE
:10472000010903D0344800780028EFD0012E00D0D2
:1047300056E0009805F8010B0098000A05F8010BF7
:104740000098000C05F8010B0098000E05F8010B0D
:104750000BF1010BBAF10000AAF1010ACBD13EE046
:1047600024E02078617840EA0120A17840EA014005
:10477000E17840EA01600090241D2048B0F80A90DA
:1047800000BFF8B2694600F0FDF90646022E08D1D6
:10479000B9F10000A9F1010903D0174800780028F9
:1047A000EFD0012E00D01BE00BF1010BBAF100009D
:1047B000AAF1010AD5D11148B0F80A9000BF002132
:1047C0000E2000F0DFF90646022E08D1B9F10000F4
:1047D000A9F1010903D0084800780028EFD000BFF4
:1047E00088F800B04FEA1B2088F8010088F80260C2
:1047F000A5EB0800BDE8F88F082800208C280020D1
:1048000030B502460C461078557840EA0520957878
:1048100040EA0540D57840EA05631BB9FF202070C7
:10482000012030BD11480068B3EB900F04D3012084
:104830000F4D6870686014E000200D4D6870581EC0
:104840000A4D2D6800EB5500B0FBF3F1022905D9A4
:10485000891E881C0325B0FBF5F100E00121044806
:104860004160002020700120DBE7000000000020F4
:104870008C2800202DE9F047064688463478757864
:10488000B078F17840EA0120317940EA014071794D
:1048900040EA016705F0010038B104F0010010B1F1
:1048A00000F018F901E000F007F905F0020078B116
:1048B00004F0020028B100BF10204A49086000BF80
:1048C00006E000BF10204749091D086000BF00BF77
:1048D00045480078401C4449087008460078002884
:1048E00013DD00200870414841490860052000F0B0
:1048F00049F9012000F0C6F83E483D4908600D2006
:1049000000F040F9012000F0BDF805F0200010B1E2
:10491000601100BF00BF05F0800010B1E011FBF78F
:104920009FFF002F49D03448874200D9074600BF77
:1049300000204FF0E021886130480068784330491A
:10494000B0FBF1F04FF0E02148610520086100BFA5
:1049500000BF05F0010020B100F0B4F8604000B1E4
:104960001BE005F0020028B100F0F8F880EA6400CE
:1049700000B112E005F0200028B100BF002080EA5D
:10498000641000B109E005F0800028B100F0EEF8F5
:1049900080EAE41000B100E007E000BF4FF0E02043
:1049A0000069C0F300400028D3D000BF00BF002042
:1049B0004FF0E021086100BF00BF00F083F881469E
:1049C00000F0CCF849EA4000002140EA411900F02B
:1049D000CDF849EAC010C4B288F800400120BDE813
:1049E000F0870000100C0140092800200CED00E0C9
:1049F000042800200400FA05C0C62D000000002095
:104A000040420F0070B504460D4614F8016B0EB914
:104A10004FF480762146304600F0B6FD0020287025
:104A2000012070BD10B50948006840080849B0FB76
:104A3000F1F0801E07494860642106484181012049
:104A400004490875FBF724FF10BD0000000000209A
:104A500040420F008C28002002461078084B187244
:104A60005078937840EA032305484381D07813793E
:104A700040EA032302488381002008700120704728
:104A80008C28002008B50B4909684FF47A72B1FBF5
:104A9000F2F1891C0322B1FBF2F148430146009177
:104AA00000BF00BF009A521E0092002AFAD100BF38
:104AB00008BD000000000020202001490860704768
:104AC000140C014002480068C0F340107047000019
:104AD0000C0C01402020014908607047100C014077
:104AE0000448006800F0100008B101207047002061
:104AF000FCE70000080C014000F0010119B1102191
:104B0000034A116003E01021014A121D1160704731
:104B1000100C014000BF0748006820F4702040F4EA
:104B2000002004490860102002491031086000BFCD
:104B300070470000000C014000BF0748006820F4E7
:104B4000702040F4403004490860102002491431BC
:104B5000086000BF70470000000C01400248006878
:104B6000C0F3001070470000080C014004480068C2
:104B700000F0010008B1012070470020FCE70000B0
:104B8000080C014070B504460D460648407820B137
:104B90002946204600F008F870BD2946204600F05E
:104BA000ABF9F9E78C2800202DE9F04706468A4644
:104BB0004FF000080120FFF79FFFFFF77DFF00BFC8
:104BC00000BFFFF787FF00BF00BF35462846FFF74D
:104BD00093FFFFF771FF00BF00BFFFF77BFF00BF30
:104BE00000BF08EB050000F0FF0875102846FFF72E
:104BF00083FFFFF761FF00BF00BFFFF76BFF00BF40
:104C000000BF08EB050000F0FF08B5102846FFF7CD
:104C100073FFFFF751FF00BF00BFFFF75BFF00BF4F
:104C200000BF08EB050000F0FF08F5102846FFF76D
:104C300063FFFFF741FF00BF00BFFFF74BFF00BF5F
:104C400000BF08EB050000F0FF084046FFF754FFE7
:104C5000FFF732FF00BF00BFFFF73CFF00BF00BF00
:104C60000020FFF749FFFFF727FF00BF00BFFFF756
:104C700031FF00BF00BF0120FFF73EFFFFF71CFF21
:104C800000BF00BFFFF726FF00BF00BFFFF742FFD6
:104C90009848047D09E0FFF70FFF00BF00BFFFF752
:104CA00019FF00BF00BF601EC4B2002CF3D1FFF794
:104CB00003FF00BF00BFFFF713FF0546FFF70AFF22
:104CC00000BF00BFA946FFF7F7FE00BF00BFFFF718
:104CD00007FF0546FFF7FEFE00BF00BF49EA45009B
:104CE00000F0FF09FFF7E8FE00BF00BFFFF7F8FE86
:104CF0000546FFF7EFFE00BF00BF49EA850000F060
:104D0000FF09B9F1010F7DD106F00200002842D061
:104D10000027A046202413E0FFF7CEFE00BF00BF0F
:104D2000FFF7DEFE0546FFF7D5FE00BF00BF08EB2C
:104D3000050000F0FF087F0847EAC577601EC4B28F
:104D4000002CE9D1FFF7B8FE00BF00BFFFF7C8FE97
:104D50000546FFF7BFFE00BF00BF88EA050000F070
:104D6000010008B14FF00809BAF1000F01D0CAF8EC
:104D700000706048047D09E0FFF79EFE00BF00BFA1
:104D8000FFF7A8FE00BF00BF601EC4B2002CF3D125
:104D9000FFF7D2FE35E05748047D09E0FFF78CFEAF
:104DA00000BF00BFFFF796FE00BF00BF601EC4B289
:104DB000002CF3D1FFF7C0FEDAF80070A0462024E3
:104DC00011E0F8B2FFF798FEFFF776FE00BF00BFD4
:104DD000FFF780FE00BF00BF08EB070000F0FF08F0
:104DE0007F08601EC4B2002CEBD14046FFF784FE62
:104DF000FFF762FE00BF00BFFFF76CFE00BF00BF01
:104E000000BF00E018E03B48047A7CB10020FFF7C7
:104E100073FE09E0FFF750FE00BF00BFFFF75AFE28
:104E200000BF00BF601EC4B2002CF3D10120FFF709
:104E300063FE4846BDE8F087B9F1020F02D0B9F130
:104E4000040F40D12B48407D80B106F0020068B1CC
:104E5000212409E0FFF730FE00BF00BFFFF73AFE54
:104E600000BF00BF601EC4B2002CF3D12148047DF6
:104E700009E0FFF721FE00BF00BFFFF72BFE00BFD8
:104E800000BF601EC4B2002CF3D1FFF755FE1948D5
:104E9000407D98B106F0020080B90020FFF72CFE9B
:104EA000212409E0FFF708FE00BF00BFFFF712FE54
:104EB00000BF00BF601EC4B2002CF3D10120FFF779
:104EC0001BFE4846B6E70B48007D2130C4B209E01E
:104ED000FFF7F2FD00BF00BFFFF7FCFD00BF00BF02
:104EE000601EC4B2002CF3D10120FFF705FE484636
:104EF000A0E700008C2800202DE9F84F06468A46DE
:104F00004FF000080120FFF7F7FDFFF7D5FDFD4941
:104F10004868009000BF00BF0099491E0091002919
:104F2000FAD100BFFFF7D6FDF6494868009000BFF0
:104F300000BF0099491E00910029FAD100BF3546F3
:104F40002846FFF7D9FDFFF7B7FDEE494868009006
:104F500000BF00BF0099491E00910029FAD100BF8F
:104F6000FFF7B8FDE7494868009000BF00BF00990F
:104F7000491E00910029FAD100BF08EB050000F09E
:104F8000FF0875102846FFF7B7FDFFF795FDDD49CF
:104F90004868009000BF00BF0099491E0091002999
:104FA000FAD100BFFFF796FDD6494868009000BFD0
:104FB00000BF0099491E00910029FAD100BF08EBFB
:104FC000050000F0FF08B5102846FFF795FDFFF734
:104FD00073FDCC494868009000BF00BF0099491E8E
:104FE00000910029FAD100BFFFF774FDC549486858
:104FF000009000BF00BF0099491E00910029FAD11E
:1050000000BF08EB050000F0FF08F5102846FFF789
:1050100073FDFFF751FDBB494868009000BF00BF1A
:105020000099491E00910029FAD100BFFFF752FDF7
:10503000B4494868009000BF00BF0099491E009124
:105040000029FAD100BF08EB050000F0FF08404638
:10505000FFF752FDFFF730FDAA494868009000BFF6
:1050600000BF0099491E00910029FAD100BFFFF747
:1050700031FDA4494868009000BF00BF0099491E57
:1050800000910029FAD100BF0020FFF735FDFFF79E
:1050900013FD9C494868009000BF00BF0099491E5D
:1050A00000910029FAD100BFFFF714FD9549486827
:1050B000009000BF00BF0099491E00910029FAD15D
:1050C00000BF0120FFF718FDFFF7F6FC8D49486887
:1050D000009000BF00BF0099491E00910029FAD13D
:1050E00000BFFFF7F7FC87494868009000BF00BF8A
:1050F0000099491E00910029FAD100BFFFF70AFD6F
:105100008048047D1BE0FFF7D7FC7E49486800908B
:1051100000BF00BF0099491E00910029FAD100BFCD
:10512000FFF7D8FC77494868009000BF00BF00999E
:10513000491E00910029FAD100BF601EC4B2002CA4
:10514000E1D1FFF7B9FC6F494868009000BF00BF8C
:105150000099491E00910029FAD100BFFFF7C0FC59
:105160000546FFF7B7FC67494868009000BF00BFDD
:105170000099491E00910029FAD100BFA946FFF706
:105180009BFC60494868009000BF00BF0099491E21
:1051900000910029FAD100BFFFF7A2FC0546FFF7F6
:1051A00099FC58494868009000BF00BF0099491E0B
:1051B00000910029FAD100BF49EA450000F0FF093B
:1051C000FFF77AFC4F494868009000BF00BF009984
:1051D000491E00910029FAD100BFFFF781FC054666
:1051E000FFF778FC47494868009000BF00BF00996E
:1051F000491E00910029FAD100BF49EA850000F05C
:10520000FF09B9F1010F7CD106F0020000287CD023
:1052100000278846202425E0FFF74EFC39494868DE
:10522000009000BF00BF0099491E00910029FAD1EB
:1052300000BFFFF755FC0546FFF74CFC31494868B5
:10524000009000BF00BF0099491E00910029FAD1CB
:1052500000BF08EB050000F0FF087F0847EAC577AC
:10526000601EC4B2002CD7D1FFF726FC2549486840
:10527000009000BF00BF0099491E00910029FAD19B
:1052800000BFFFF72DFC0546FFF724FC1D494868C9
:10529000009000BF00BF0099491E00910029FAD17B
:1052A00000BF88EA050000F0010008B14FF00809CE
:1052B000BAF1000F01D0CAF800701248047D1BE05B
:1052C000FFF7FAFB0F494868009000BF00BF009944
:1052D000491E00910029FAD100BFFFF7FBFB0949E5
:1052E0004868009000BF00BF0099491E0091002946
:1052F000FAD100BF601EC4B2002CE1D1FFF71CFC44
:105300006EE098E08C280020FFE79E48047D1BE0BB
:10531000FFF7D2FB9B494868009000BF00BF00998F
:10532000491E00910029FAD100BFFFF7D3FB954930
:105330004868009000BF00BF0099491E00910029F5
:10534000FAD100BF601EC4B2002CE1D1FFF7F4FB1C
:10535000DAF80070A046202423E0F8B2FFF7CCFB77
:10536000FFF7AAFB87494868009000BF00BF00997B
:10537000491E00910029FAD100BFFFF7ABFB81491C
:105380004868009000BF00BF0099491E00910029A5
:10539000FAD100BF08EB070000F0FF087F08601E8D
:1053A000C4B2002CD9D14046FFF7A6FBFFF784FB1F
:1053B00074494868009000BF00BF0099491E0091E1
:1053C0000029FAD100BFFFF785FB6E4948680090BD
:1053D00000BF00BF0099491E00910029FAD100BF0B
:1053E0006848047A0CB30020FFF786FB1BE0FFF748
:1053F00063FB64494868009000BF00BF0099491EE4
:1054000000910029FAD100BFFFF764FB5D494868AD
:10541000009000BF00BF0099491E00910029FAD1F9
:1054200000BF601EC4B2002CE1D10120FFF764FB75
:105430004846BDE8F88FB9F1020F02D0B9F1040F68
:1054400077D15048407D10B306F00200F8B1212416
:105450001BE0FFF731FB4B494868009000BF00BFDD
:105460000099491E00910029FAD100BFFFF732FBD5
:1054700044494868009000BF00BF0099491E009150
:105480000029FAD100BF601EC4B2002CE1D13D4812
:10549000047D1BE0FFF710FB3A494868009000BF0D
:1054A00000BF0099491E00910029FAD100BFFFF703
:1054B00011FB34494868009000BF00BF0099491EA5
:1054C00000910029FAD100BF601EC4B2002CE1D1C6
:1054D000FFF732FB2B48407D28B306F0020010BBDB
:1054E0000020FFF709FB21241BE0FFF7E5FA25491F
:1054F0004868009000BF00BF0099491E0091002934
:10550000FAD100BFFFF7E6FA1E494868009000BFD5
:1055100000BF0099491E00910029FAD100BF601E0A
:10552000C4B2002CE1D10120FFF7E6FA484680E73B
:10553000FFE71448007D2130C4B21BE0FFF7BCFA3E
:1055400010494868009000BF00BF0099491E0091B3
:105550000029FAD100BFFFF7BDFA0A494868009058
:1055600000BF00BF0099491E00910029FAD100BF79
:10557000601EC4B2002CE1D10120FFF7BDFA4846FD
:1055800057E700008C280020F8B504460D46002798
:1055900031E0641E17B915F8016B082706F0010009
:1055A00028B100BF10201549086000BF06E000BF09
:1055B00010201249091D086000BF00BFFFF77CFAE8
:1055C0000F494868009000BF00BF0099491E009134
:1055D0000029FAD100BFFFF77DFA09494868009019
:1055E00000BF00BF0099491E00910029FAD100BFF9
:1055F0007610781EC7B2002CCBD1F8BD100C01403C
:105600008C280020012001490870704708280020DC
:1056100010B5044602480460FFF704FA10BD00000C
:0856200000280020312E3000AB
:04000005080000ED02
:00000001FF
